{
  "contractName": "CryptoBoys",
  "abi": [
    {
      "inputs": [],
      "stateMutability": "nonpayable",
      "type": "constructor"
    },
    {
      "anonymous": false,
      "inputs": [
        {
          "indexed": true,
          "internalType": "address",
          "name": "owner",
          "type": "address"
        },
        {
          "indexed": true,
          "internalType": "address",
          "name": "approved",
          "type": "address"
        },
        {
          "indexed": true,
          "internalType": "uint256",
          "name": "tokenId",
          "type": "uint256"
        }
      ],
      "name": "Approval",
      "type": "event"
    },
    {
      "anonymous": false,
      "inputs": [
        {
          "indexed": true,
          "internalType": "address",
          "name": "owner",
          "type": "address"
        },
        {
          "indexed": true,
          "internalType": "address",
          "name": "operator",
          "type": "address"
        },
        {
          "indexed": false,
          "internalType": "bool",
          "name": "approved",
          "type": "bool"
        }
      ],
      "name": "ApprovalForAll",
      "type": "event"
    },
    {
      "anonymous": false,
      "inputs": [
        {
          "indexed": true,
          "internalType": "address",
          "name": "from",
          "type": "address"
        },
        {
          "indexed": true,
          "internalType": "address",
          "name": "to",
          "type": "address"
        },
        {
          "indexed": true,
          "internalType": "uint256",
          "name": "tokenId",
          "type": "uint256"
        }
      ],
      "name": "Transfer",
      "type": "event"
    },
    {
      "inputs": [
        {
          "internalType": "uint256",
          "name": "",
          "type": "uint256"
        }
      ],
      "name": "allCryptoBoys",
      "outputs": [
        {
          "internalType": "uint256",
          "name": "tokenId",
          "type": "uint256"
        },
        {
          "internalType": "string",
          "name": "tokenName",
          "type": "string"
        },
        {
          "internalType": "string",
          "name": "tokenURI",
          "type": "string"
        },
        {
          "internalType": "address payable",
          "name": "mintedBy",
          "type": "address"
        },
        {
          "internalType": "address payable",
          "name": "currentOwner",
          "type": "address"
        },
        {
          "internalType": "address payable",
          "name": "previousOwner",
          "type": "address"
        },
        {
          "internalType": "uint256",
          "name": "price",
          "type": "uint256"
        },
        {
          "internalType": "uint256",
          "name": "numberOfTransfers",
          "type": "uint256"
        },
        {
          "internalType": "bool",
          "name": "forSale",
          "type": "bool"
        }
      ],
      "stateMutability": "view",
      "type": "function"
    },
    {
      "inputs": [
        {
          "internalType": "address",
          "name": "to",
          "type": "address"
        },
        {
          "internalType": "uint256",
          "name": "tokenId",
          "type": "uint256"
        }
      ],
      "name": "approve",
      "outputs": [],
      "stateMutability": "nonpayable",
      "type": "function"
    },
    {
      "inputs": [
        {
          "internalType": "address",
          "name": "owner",
          "type": "address"
        }
      ],
      "name": "balanceOf",
      "outputs": [
        {
          "internalType": "uint256",
          "name": "",
          "type": "uint256"
        }
      ],
      "stateMutability": "view",
      "type": "function"
    },
    {
      "inputs": [],
      "name": "baseURI",
      "outputs": [
        {
          "internalType": "string",
          "name": "",
          "type": "string"
        }
      ],
      "stateMutability": "view",
      "type": "function"
    },
    {
      "inputs": [],
      "name": "collectionName",
      "outputs": [
        {
          "internalType": "string",
          "name": "",
          "type": "string"
        }
      ],
      "stateMutability": "view",
      "type": "function"
    },
    {
      "inputs": [],
      "name": "collectionNameSymbol",
      "outputs": [
        {
          "internalType": "string",
          "name": "",
          "type": "string"
        }
      ],
      "stateMutability": "view",
      "type": "function"
    },
    {
      "inputs": [],
      "name": "cryptoBoyCounter",
      "outputs": [
        {
          "internalType": "uint256",
          "name": "",
          "type": "uint256"
        }
      ],
      "stateMutability": "view",
      "type": "function"
    },
    {
      "inputs": [
        {
          "internalType": "uint256",
          "name": "tokenId",
          "type": "uint256"
        }
      ],
      "name": "getApproved",
      "outputs": [
        {
          "internalType": "address",
          "name": "",
          "type": "address"
        }
      ],
      "stateMutability": "view",
      "type": "function"
    },
    {
      "inputs": [
        {
          "internalType": "address",
          "name": "owner",
          "type": "address"
        },
        {
          "internalType": "address",
          "name": "operator",
          "type": "address"
        }
      ],
      "name": "isApprovedForAll",
      "outputs": [
        {
          "internalType": "bool",
          "name": "",
          "type": "bool"
        }
      ],
      "stateMutability": "view",
      "type": "function"
    },
    {
      "inputs": [],
      "name": "name",
      "outputs": [
        {
          "internalType": "string",
          "name": "",
          "type": "string"
        }
      ],
      "stateMutability": "view",
      "type": "function"
    },
    {
      "inputs": [
        {
          "internalType": "uint256",
          "name": "tokenId",
          "type": "uint256"
        }
      ],
      "name": "ownerOf",
      "outputs": [
        {
          "internalType": "address",
          "name": "",
          "type": "address"
        }
      ],
      "stateMutability": "view",
      "type": "function"
    },
    {
      "inputs": [
        {
          "internalType": "address",
          "name": "from",
          "type": "address"
        },
        {
          "internalType": "address",
          "name": "to",
          "type": "address"
        },
        {
          "internalType": "uint256",
          "name": "tokenId",
          "type": "uint256"
        }
      ],
      "name": "safeTransferFrom",
      "outputs": [],
      "stateMutability": "nonpayable",
      "type": "function"
    },
    {
      "inputs": [
        {
          "internalType": "address",
          "name": "from",
          "type": "address"
        },
        {
          "internalType": "address",
          "name": "to",
          "type": "address"
        },
        {
          "internalType": "uint256",
          "name": "tokenId",
          "type": "uint256"
        },
        {
          "internalType": "bytes",
          "name": "_data",
          "type": "bytes"
        }
      ],
      "name": "safeTransferFrom",
      "outputs": [],
      "stateMutability": "nonpayable",
      "type": "function"
    },
    {
      "inputs": [
        {
          "internalType": "address",
          "name": "operator",
          "type": "address"
        },
        {
          "internalType": "bool",
          "name": "approved",
          "type": "bool"
        }
      ],
      "name": "setApprovalForAll",
      "outputs": [],
      "stateMutability": "nonpayable",
      "type": "function"
    },
    {
      "inputs": [
        {
          "internalType": "bytes4",
          "name": "interfaceId",
          "type": "bytes4"
        }
      ],
      "name": "supportsInterface",
      "outputs": [
        {
          "internalType": "bool",
          "name": "",
          "type": "bool"
        }
      ],
      "stateMutability": "view",
      "type": "function"
    },
    {
      "inputs": [],
      "name": "symbol",
      "outputs": [
        {
          "internalType": "string",
          "name": "",
          "type": "string"
        }
      ],
      "stateMutability": "view",
      "type": "function"
    },
    {
      "inputs": [
        {
          "internalType": "uint256",
          "name": "index",
          "type": "uint256"
        }
      ],
      "name": "tokenByIndex",
      "outputs": [
        {
          "internalType": "uint256",
          "name": "",
          "type": "uint256"
        }
      ],
      "stateMutability": "view",
      "type": "function"
    },
    {
      "inputs": [
        {
          "internalType": "string",
          "name": "",
          "type": "string"
        }
      ],
      "name": "tokenNameExists",
      "outputs": [
        {
          "internalType": "bool",
          "name": "",
          "type": "bool"
        }
      ],
      "stateMutability": "view",
      "type": "function"
    },
    {
      "inputs": [
        {
          "internalType": "address",
          "name": "owner",
          "type": "address"
        },
        {
          "internalType": "uint256",
          "name": "index",
          "type": "uint256"
        }
      ],
      "name": "tokenOfOwnerByIndex",
      "outputs": [
        {
          "internalType": "uint256",
          "name": "",
          "type": "uint256"
        }
      ],
      "stateMutability": "view",
      "type": "function"
    },
    {
      "inputs": [
        {
          "internalType": "uint256",
          "name": "tokenId",
          "type": "uint256"
        }
      ],
      "name": "tokenURI",
      "outputs": [
        {
          "internalType": "string",
          "name": "",
          "type": "string"
        }
      ],
      "stateMutability": "view",
      "type": "function"
    },
    {
      "inputs": [
        {
          "internalType": "string",
          "name": "",
          "type": "string"
        }
      ],
      "name": "tokenURIExists",
      "outputs": [
        {
          "internalType": "bool",
          "name": "",
          "type": "bool"
        }
      ],
      "stateMutability": "view",
      "type": "function"
    },
    {
      "inputs": [],
      "name": "totalSupply",
      "outputs": [
        {
          "internalType": "uint256",
          "name": "",
          "type": "uint256"
        }
      ],
      "stateMutability": "view",
      "type": "function"
    },
    {
      "inputs": [
        {
          "internalType": "address",
          "name": "from",
          "type": "address"
        },
        {
          "internalType": "address",
          "name": "to",
          "type": "address"
        },
        {
          "internalType": "uint256",
          "name": "tokenId",
          "type": "uint256"
        }
      ],
      "name": "transferFrom",
      "outputs": [],
      "stateMutability": "nonpayable",
      "type": "function"
    },
    {
      "inputs": [
        {
          "internalType": "string",
          "name": "_name",
          "type": "string"
        },
        {
          "internalType": "string",
          "name": "_tokenURI",
          "type": "string"
        },
        {
          "internalType": "uint256",
          "name": "_price",
          "type": "uint256"
        }
      ],
      "name": "mintCryptoBoy",
      "outputs": [],
      "stateMutability": "nonpayable",
      "type": "function"
    },
    {
      "inputs": [
        {
          "internalType": "uint256",
          "name": "_tokenId",
          "type": "uint256"
        }
      ],
      "name": "getTokenOwner",
      "outputs": [
        {
          "internalType": "address",
          "name": "",
          "type": "address"
        }
      ],
      "stateMutability": "view",
      "type": "function"
    },
    {
      "inputs": [
        {
          "internalType": "uint256",
          "name": "_tokenId",
          "type": "uint256"
        }
      ],
      "name": "getTokenMetaData",
      "outputs": [
        {
          "internalType": "string",
          "name": "",
          "type": "string"
        }
      ],
      "stateMutability": "view",
      "type": "function"
    },
    {
      "inputs": [],
      "name": "getNumberOfTokensMinted",
      "outputs": [
        {
          "internalType": "uint256",
          "name": "",
          "type": "uint256"
        }
      ],
      "stateMutability": "view",
      "type": "function"
    },
    {
      "inputs": [
        {
          "internalType": "address",
          "name": "_owner",
          "type": "address"
        }
      ],
      "name": "getTotalNumberOfTokensOwnedByAnAddress",
      "outputs": [
        {
          "internalType": "uint256",
          "name": "",
          "type": "uint256"
        }
      ],
      "stateMutability": "view",
      "type": "function"
    },
    {
      "inputs": [
        {
          "internalType": "uint256",
          "name": "_tokenId",
          "type": "uint256"
        }
      ],
      "name": "getTokenExists",
      "outputs": [
        {
          "internalType": "bool",
          "name": "",
          "type": "bool"
        }
      ],
      "stateMutability": "view",
      "type": "function"
    },
    {
      "inputs": [
        {
          "internalType": "uint256",
          "name": "_tokenId",
          "type": "uint256"
        }
      ],
      "name": "buyToken",
      "outputs": [],
      "stateMutability": "payable",
      "type": "function"
    },
    {
      "inputs": [
        {
          "internalType": "uint256",
          "name": "_tokenId",
          "type": "uint256"
        },
        {
          "internalType": "uint256",
          "name": "_newPrice",
          "type": "uint256"
        }
      ],
      "name": "changeTokenPrice",
      "outputs": [],
      "stateMutability": "nonpayable",
      "type": "function"
    },
    {
      "inputs": [
        {
          "internalType": "uint256",
          "name": "_tokenId",
          "type": "uint256"
        }
      ],
      "name": "toggleForSale",
      "outputs": [],
      "stateMutability": "nonpayable",
      "type": "function"
    }
  ],
  "bytecode": "0x60806040523480156200001157600080fd5b506040518060400160405280601681526020017f43727970746f20426f797320436f6c6c656374696f6e000000000000000000008152506040518060400160405280600281526020017f4342000000000000000000000000000000000000000000000000000000000000815250620000966301ffc9a760e01b6200016860201b60201c565b8160069080519060200190620000ae929190620003bd565b508060079080519060200190620000c7929190620003bd565b50620000e06380ac58cd60e01b6200016860201b60201c565b620000f8635b5e139f60e01b6200016860201b60201c565b6200011063780e9d6360e01b6200016860201b60201c565b5050620001226200027160201b60201c565b600a908051906020019062000139929190620003bd565b506200014a6200031760201b60201c565b600b908051906020019062000161929190620003bd565b5062000473565b63ffffffff60e01b817bffffffffffffffffffffffffffffffffffffffffffffffffffffffff1916141562000205576040517f08c379a000000000000000000000000000000000000000000000000000000000815260040180806020018281038252601c8152602001807f4552433136353a20696e76616c696420696e746572666163652069640000000081525060200191505060405180910390fd5b6001600080837bffffffffffffffffffffffffffffffffffffffffffffffffffffffff19167bffffffffffffffffffffffffffffffffffffffffffffffffffffffff1916815260200190815260200160002060006101000a81548160ff02191690831515021790555050565b606060068054600181600116156101000203166002900480601f0160208091040260200160405190810160405280929190818152602001828054600181600116156101000203166002900480156200030d5780601f10620002e1576101008083540402835291602001916200030d565b820191906000526020600020905b815481529060010190602001808311620002ef57829003601f168201915b5050505050905090565b606060078054600181600116156101000203166002900480601f016020809104026020016040519081016040528092919081815260200182805460018160011615610100020316600290048015620003b35780601f106200038757610100808354040283529160200191620003b3565b820191906000526020600020905b8154815290600101906020018083116200039557829003601f168201915b5050505050905090565b828054600181600116156101000203166002900490600052602060002090601f016020900481019282620003f5576000855562000441565b82601f106200041057805160ff191683800117855562000441565b8280016001018555821562000441579182015b828111156200044057825182559160200191906001019062000423565b5b50905062000450919062000454565b5090565b5b808211156200046f57600081600090555060010162000455565b5090565b6148cf80620004836000396000f3fe6080604052600436106101e35760003560e01c80636352211e11610102578063a46b1fac11610095578063c87b56dd11610064578063c87b56dd1461076f578063cc151f3a146107ac578063e5326ab1146107d7578063e985e9c514610802576101e3565b8063a46b1fac146106a1578063a5cd761f146106de578063b88d4fde1461071b578063bffec20214610744576101e3565b806370a08231116100d157806370a08231146105e757806395d89b4114610624578063a22cb4651461064f578063a32018b914610678576101e3565b80636352211e1461051757806367c623cf146105545780636c0360eb146105915780636f9507f9146105bc576101e3565b80632d296bf11161017a57806343d32ae71161014957806343d32ae71461042f57806344c0d7eb1461046c5780634f6ccce7146104b157806362e8e8ac146104ee576101e3565b80632d296bf1146103705780632f745c591461038c57806342842e0e146103c957806343902850146103f2576101e3565b8063142687f3116101b6578063142687f3146102b6578063156af0b0146102f357806318160ddd1461031c57806323b872dd14610347576101e3565b806301ffc9a7146101e857806306fdde0314610225578063081812fc14610250578063095ea7b31461028d575b600080fd5b3480156101f457600080fd5b5061020f600480360381019061020a9190614118565b61083f565b60405161021c919061433e565b60405180910390f35b34801561023157600080fd5b5061023a6108a6565b6040516102479190614359565b60405180910390f35b34801561025c57600080fd5b5061027760048036038101906102729190614201565b610948565b6040516102849190614323565b60405180910390f35b34801561029957600080fd5b506102b460048036038101906102af91906140dc565b6109e3565b005b3480156102c257600080fd5b506102dd60048036038101906102d89190614201565b610b27565b6040516102ea919061433e565b60405180910390f35b3480156102ff57600080fd5b5061031a60048036038101906103159190614182565b610b3e565b005b34801561032857600080fd5b50610331610e8b565b60405161033e919061437b565b60405180910390f35b34801561035357600080fd5b5061036e60048036038101906103699190613fd6565b610e9c565b005b61038a60048036038101906103859190614201565b610f12565b005b34801561039857600080fd5b506103b360048036038101906103ae91906140dc565b6114eb565b6040516103c0919061437b565b60405180910390f35b3480156103d557600080fd5b506103f060048036038101906103eb9190613fd6565b611546565b005b3480156103fe57600080fd5b5061041960048036038101906104149190613f71565b611566565b604051610426919061437b565b60405180910390f35b34801561043b57600080fd5b5061045660048036038101906104519190614141565b61157d565b604051610463919061433e565b60405180910390f35b34801561047857600080fd5b50610493600480360381019061048e9190614201565b6115b3565b6040516104a899989796959493929190614396565b60405180910390f35b3480156104bd57600080fd5b506104d860048036038101906104d39190614201565b61179e565b6040516104e5919061437b565b60405180910390f35b3480156104fa57600080fd5b506105156004803603810190610510919061422a565b6117c1565b005b34801561052357600080fd5b5061053e60048036038101906105399190614201565b611c69565b60405161054b9190614323565b60405180910390f35b34801561056057600080fd5b5061057b60048036038101906105769190614201565b611ca0565b6040516105889190614359565b60405180910390f35b34801561059d57600080fd5b506105a6611cb8565b6040516105b39190614359565b60405180910390f35b3480156105c857600080fd5b506105d1611d5a565b6040516105de9190614359565b60405180910390f35b3480156105f357600080fd5b5061060e60048036038101906106099190613f71565b611df8565b60405161061b919061437b565b60405180910390f35b34801561063057600080fd5b50610639611ecd565b6040516106469190614359565b60405180910390f35b34801561065b57600080fd5b50610676600480360381019061067191906140a0565b611f6f565b005b34801561068457600080fd5b5061069f600480360381019061069a9190614201565b612125565b005b3480156106ad57600080fd5b506106c860048036038101906106c39190614141565b6125f7565b6040516106d5919061433e565b60405180910390f35b3480156106ea57600080fd5b5061070560048036038101906107009190614201565b61262d565b6040516107129190614323565b60405180910390f35b34801561072757600080fd5b50610742600480360381019061073d9190614025565b612644565b005b34801561075057600080fd5b506107596126bc565b604051610766919061437b565b60405180910390f35b34801561077b57600080fd5b5061079660048036038101906107919190614201565b6126c2565b6040516107a39190614359565b60405180910390f35b3480156107b857600080fd5b506107c1612993565b6040516107ce919061437b565b60405180910390f35b3480156107e357600080fd5b506107ec6129a7565b6040516107f99190614359565b60405180910390f35b34801561080e57600080fd5b5061082960048036038101906108249190613f9a565b612a45565b604051610836919061433e565b60405180910390f35b6000806000837bffffffffffffffffffffffffffffffffffffffffffffffffffffffff19167bffffffffffffffffffffffffffffffffffffffffffffffffffffffff1916815260200190815260200160002060009054906101000a900460ff169050919050565b606060068054600181600116156101000203166002900480601f01602080910402602001604051908101604052809291908181526020018280546001816001161561010002031660029004801561093e5780601f106109135761010080835404028352916020019161093e565b820191906000526020600020905b81548152906001019060200180831161092157829003601f168201915b5050505050905090565b600061095382612ad9565b6109a8576040517f08c379a000000000000000000000000000000000000000000000000000000000815260040180806020018281038252602c815260200180614798602c913960400191505060405180910390fd5b6004600083815260200190815260200160002060009054906101000a900473ffffffffffffffffffffffffffffffffffffffff169050919050565b60006109ee82611c69565b90508073ffffffffffffffffffffffffffffffffffffffff168373ffffffffffffffffffffffffffffffffffffffff161415610a75576040517f08c379a00000000000000000000000000000000000000000000000000000000081526004018080602001828103825260218152602001806148486021913960400191505060405180910390fd5b8073ffffffffffffffffffffffffffffffffffffffff16610a94612af6565b73ffffffffffffffffffffffffffffffffffffffff161480610ac35750610ac281610abd612af6565b612a45565b5b610b18576040517f08c379a00000000000000000000000000000000000000000000000000000000081526004018080602001828103825260388152602001806146eb6038913960400191505060405180910390fd5b610b228383612afe565b505050565b600080610b3383612ad9565b905080915050919050565b600073ffffffffffffffffffffffffffffffffffffffff163373ffffffffffffffffffffffffffffffffffffffff161415610b7857600080fd5b600c60008154809291906001019190505550610b95600c54612ad9565b15610b9f57600080fd5b600f82604051610baf919061430c565b908152602001604051809103902060009054906101000a900460ff1615610bd557600080fd5b600e83604051610be5919061430c565b908152602001604051809103902060009054906101000a900460ff1615610c0b57600080fd5b610c1733600c54612bb7565b610c23600c5483612dab565b6001600f83604051610c35919061430c565b908152602001604051809103902060006101000a81548160ff0219169083151502179055506001600e84604051610c6c919061430c565b908152602001604051809103902060006101000a81548160ff0219169083151502179055506000604051806101200160405280600c5481526020018581526020018481526020013373ffffffffffffffffffffffffffffffffffffffff1681526020013373ffffffffffffffffffffffffffffffffffffffff168152602001600073ffffffffffffffffffffffffffffffffffffffff1681526020018381526020016000815260200160011515815250905080600d6000600c548152602001908152602001600020600082015181600001556020820151816001019080519060200190610d5a929190613da2565b506040820151816002019080519060200190610d77929190613da2565b5060608201518160030160006101000a81548173ffffffffffffffffffffffffffffffffffffffff021916908373ffffffffffffffffffffffffffffffffffffffff16021790555060808201518160040160006101000a81548173ffffffffffffffffffffffffffffffffffffffff021916908373ffffffffffffffffffffffffffffffffffffffff16021790555060a08201518160050160006101000a81548173ffffffffffffffffffffffffffffffffffffffff021916908373ffffffffffffffffffffffffffffffffffffffff16021790555060c0820151816006015560e082015181600701556101008201518160080160006101000a81548160ff02191690831515021790555090505050505050565b6000610e976002612e35565b905090565b610ead610ea7612af6565b82612e4a565b610f02576040517f08c379a00000000000000000000000000000000000000000000000000000000081526004018080602001828103825260318152602001806148696031913960400191505060405180910390fd5b610f0d838383612f3e565b505050565b600073ffffffffffffffffffffffffffffffffffffffff163373ffffffffffffffffffffffffffffffffffffffff161415610f4c57600080fd5b610f5581612ad9565b610f5e57600080fd5b6000610f6982611c69565b9050600073ffffffffffffffffffffffffffffffffffffffff168173ffffffffffffffffffffffffffffffffffffffff161415610fa557600080fd5b3373ffffffffffffffffffffffffffffffffffffffff168173ffffffffffffffffffffffffffffffffffffffff161415610fde57600080fd5b6000600d60008481526020019081526020016000206040518061012001604052908160008201548152602001600182018054600181600116156101000203166002900480601f0160208091040260200160405190810160405280929190818152602001828054600181600116156101000203166002900480156110a25780601f10611077576101008083540402835291602001916110a2565b820191906000526020600020905b81548152906001019060200180831161108557829003601f168201915b50505050508152602001600282018054600181600116156101000203166002900480601f0160208091040260200160405190810160405280929190818152602001828054600181600116156101000203166002900480156111445780601f1061111957610100808354040283529160200191611144565b820191906000526020600020905b81548152906001019060200180831161112757829003601f168201915b505050505081526020016003820160009054906101000a900473ffffffffffffffffffffffffffffffffffffffff1673ffffffffffffffffffffffffffffffffffffffff1673ffffffffffffffffffffffffffffffffffffffff1681526020016004820160009054906101000a900473ffffffffffffffffffffffffffffffffffffffff1673ffffffffffffffffffffffffffffffffffffffff1673ffffffffffffffffffffffffffffffffffffffff1681526020016005820160009054906101000a900473ffffffffffffffffffffffffffffffffffffffff1673ffffffffffffffffffffffffffffffffffffffff1673ffffffffffffffffffffffffffffffffffffffff16815260200160068201548152602001600782015481526020016008820160009054906101000a900460ff16151515158152505090508060c0015134101561129157600080fd5b8061010001516112a057600080fd5b6112ab823385612f3e565b6000816080015190508073ffffffffffffffffffffffffffffffffffffffff166108fc349081150290604051600060405180830381858888f193505050501580156112fa573d6000803e3d6000fd5b5081608001518260a0019073ffffffffffffffffffffffffffffffffffffffff16908173ffffffffffffffffffffffffffffffffffffffff168152505033826080019073ffffffffffffffffffffffffffffffffffffffff16908173ffffffffffffffffffffffffffffffffffffffff168152505060018260e001818151019150818152505081600d60008681526020019081526020016000206000820151816000015560208201518160010190805190602001906113ba929190613da2565b5060408201518160020190805190602001906113d7929190613da2565b5060608201518160030160006101000a81548173ffffffffffffffffffffffffffffffffffffffff021916908373ffffffffffffffffffffffffffffffffffffffff16021790555060808201518160040160006101000a81548173ffffffffffffffffffffffffffffffffffffffff021916908373ffffffffffffffffffffffffffffffffffffffff16021790555060a08201518160050160006101000a81548173ffffffffffffffffffffffffffffffffffffffff021916908373ffffffffffffffffffffffffffffffffffffffff16021790555060c0820151816006015560e082015181600701556101008201518160080160006101000a81548160ff02191690831515021790555090505050505050565b600061153e82600160008673ffffffffffffffffffffffffffffffffffffffff1673ffffffffffffffffffffffffffffffffffffffff16815260200190815260200160002061318190919063ffffffff16565b905092915050565b61156183838360405180602001604052806000815250612644565b505050565b60008061157283611df8565b905080915050919050565b600f818051602081018201805184825260208301602085012081835280955050505050506000915054906101000a900460ff1681565b600d602052806000526040600020600091509050806000015490806001018054600181600116156101000203166002900480601f0160208091040260200160405190810160405280929190818152602001828054600181600116156101000203166002900480156116655780601f1061163a57610100808354040283529160200191611665565b820191906000526020600020905b81548152906001019060200180831161164857829003601f168201915b505050505090806002018054600181600116156101000203166002900480601f0160208091040260200160405190810160405280929190818152602001828054600181600116156101000203166002900480156117035780601f106116d857610100808354040283529160200191611703565b820191906000526020600020905b8154815290600101906020018083116116e657829003601f168201915b5050505050908060030160009054906101000a900473ffffffffffffffffffffffffffffffffffffffff16908060040160009054906101000a900473ffffffffffffffffffffffffffffffffffffffff16908060050160009054906101000a900473ffffffffffffffffffffffffffffffffffffffff16908060060154908060070154908060080160009054906101000a900460ff16905089565b6000806117b583600261319b90919063ffffffff16565b50905080915050919050565b600073ffffffffffffffffffffffffffffffffffffffff163373ffffffffffffffffffffffffffffffffffffffff1614156117fb57600080fd5b61180482612ad9565b61180d57600080fd5b600061181883611c69565b90503373ffffffffffffffffffffffffffffffffffffffff168173ffffffffffffffffffffffffffffffffffffffff161461185257600080fd5b6000600d60008581526020019081526020016000206040518061012001604052908160008201548152602001600182018054600181600116156101000203166002900480601f0160208091040260200160405190810160405280929190818152602001828054600181600116156101000203166002900480156119165780601f106118eb57610100808354040283529160200191611916565b820191906000526020600020905b8154815290600101906020018083116118f957829003601f168201915b50505050508152602001600282018054600181600116156101000203166002900480601f0160208091040260200160405190810160405280929190818152602001828054600181600116156101000203166002900480156119b85780601f1061198d576101008083540402835291602001916119b8565b820191906000526020600020905b81548152906001019060200180831161199b57829003601f168201915b505050505081526020016003820160009054906101000a900473ffffffffffffffffffffffffffffffffffffffff1673ffffffffffffffffffffffffffffffffffffffff1673ffffffffffffffffffffffffffffffffffffffff1681526020016004820160009054906101000a900473ffffffffffffffffffffffffffffffffffffffff1673ffffffffffffffffffffffffffffffffffffffff1673ffffffffffffffffffffffffffffffffffffffff1681526020016005820160009054906101000a900473ffffffffffffffffffffffffffffffffffffffff1673ffffffffffffffffffffffffffffffffffffffff1673ffffffffffffffffffffffffffffffffffffffff16815260200160068201548152602001600782015481526020016008820160009054906101000a900460ff1615151515815250509050828160c001818152505080600d6000868152602001908152602001600020600082015181600001556020820151816001019080519060200190611b38929190613da2565b506040820151816002019080519060200190611b55929190613da2565b5060608201518160030160006101000a81548173ffffffffffffffffffffffffffffffffffffffff021916908373ffffffffffffffffffffffffffffffffffffffff16021790555060808201518160040160006101000a81548173ffffffffffffffffffffffffffffffffffffffff021916908373ffffffffffffffffffffffffffffffffffffffff16021790555060a08201518160050160006101000a81548173ffffffffffffffffffffffffffffffffffffffff021916908373ffffffffffffffffffffffffffffffffffffffff16021790555060c0820151816006015560e082015181600701556101008201518160080160006101000a81548160ff02191690831515021790555090505050505050565b6000611c998260405180606001604052806029815260200161474d6029913960026131c79092919063ffffffff16565b9050919050565b60606000611cad836126c2565b905080915050919050565b606060098054600181600116156101000203166002900480601f016020809104026020016040519081016040528092919081815260200182805460018160011615610100020316600290048015611d505780601f10611d2557610100808354040283529160200191611d50565b820191906000526020600020905b815481529060010190602001808311611d3357829003601f168201915b5050505050905090565b600b8054600181600116156101000203166002900480601f016020809104026020016040519081016040528092919081815260200182805460018160011615610100020316600290048015611df05780601f10611dc557610100808354040283529160200191611df0565b820191906000526020600020905b815481529060010190602001808311611dd357829003601f168201915b505050505081565b60008073ffffffffffffffffffffffffffffffffffffffff168273ffffffffffffffffffffffffffffffffffffffff161415611e7f576040517f08c379a000000000000000000000000000000000000000000000000000000000815260040180806020018281038252602a815260200180614723602a913960400191505060405180910390fd5b611ec6600160008473ffffffffffffffffffffffffffffffffffffffff1673ffffffffffffffffffffffffffffffffffffffff1681526020019081526020016000206131e6565b9050919050565b606060078054600181600116156101000203166002900480601f016020809104026020016040519081016040528092919081815260200182805460018160011615610100020316600290048015611f655780601f10611f3a57610100808354040283529160200191611f65565b820191906000526020600020905b815481529060010190602001808311611f4857829003601f168201915b5050505050905090565b611f77612af6565b73ffffffffffffffffffffffffffffffffffffffff168273ffffffffffffffffffffffffffffffffffffffff161415612018576040517f08c379a00000000000000000000000000000000000000000000000000000000081526004018080602001828103825260198152602001807f4552433732313a20617070726f766520746f2063616c6c65720000000000000081525060200191505060405180910390fd5b8060056000612025612af6565b73ffffffffffffffffffffffffffffffffffffffff1673ffffffffffffffffffffffffffffffffffffffff16815260200190815260200160002060008473ffffffffffffffffffffffffffffffffffffffff1673ffffffffffffffffffffffffffffffffffffffff16815260200190815260200160002060006101000a81548160ff0219169083151502179055508173ffffffffffffffffffffffffffffffffffffffff166120d2612af6565b73ffffffffffffffffffffffffffffffffffffffff167f17307eab39ab6107e8899845ad3d59bd9653f200f220920489ca2b5937696c318360405180821515815260200191505060405180910390a35050565b600073ffffffffffffffffffffffffffffffffffffffff163373ffffffffffffffffffffffffffffffffffffffff16141561215f57600080fd5b61216881612ad9565b61217157600080fd5b600061217c82611c69565b90503373ffffffffffffffffffffffffffffffffffffffff168173ffffffffffffffffffffffffffffffffffffffff16146121b657600080fd5b6000600d60008481526020019081526020016000206040518061012001604052908160008201548152602001600182018054600181600116156101000203166002900480601f01602080910402602001604051908101604052809291908181526020018280546001816001161561010002031660029004801561227a5780601f1061224f5761010080835404028352916020019161227a565b820191906000526020600020905b81548152906001019060200180831161225d57829003601f168201915b50505050508152602001600282018054600181600116156101000203166002900480601f01602080910402602001604051908101604052809291908181526020018280546001816001161561010002031660029004801561231c5780601f106122f15761010080835404028352916020019161231c565b820191906000526020600020905b8154815290600101906020018083116122ff57829003601f168201915b505050505081526020016003820160009054906101000a900473ffffffffffffffffffffffffffffffffffffffff1673ffffffffffffffffffffffffffffffffffffffff1673ffffffffffffffffffffffffffffffffffffffff1681526020016004820160009054906101000a900473ffffffffffffffffffffffffffffffffffffffff1673ffffffffffffffffffffffffffffffffffffffff1673ffffffffffffffffffffffffffffffffffffffff1681526020016005820160009054906101000a900473ffffffffffffffffffffffffffffffffffffffff1673ffffffffffffffffffffffffffffffffffffffff1673ffffffffffffffffffffffffffffffffffffffff16815260200160068201548152602001600782015481526020016008820160009054906101000a900460ff16151515158152505090508061010001511561247a5760008161010001901515908115158152505061248d565b6001816101000190151590811515815250505b80600d60008581526020019081526020016000206000820151816000015560208201518160010190805190602001906124c7929190613da2565b5060408201518160020190805190602001906124e4929190613da2565b5060608201518160030160006101000a81548173ffffffffffffffffffffffffffffffffffffffff021916908373ffffffffffffffffffffffffffffffffffffffff16021790555060808201518160040160006101000a81548173ffffffffffffffffffffffffffffffffffffffff021916908373ffffffffffffffffffffffffffffffffffffffff16021790555060a08201518160050160006101000a81548173ffffffffffffffffffffffffffffffffffffffff021916908373ffffffffffffffffffffffffffffffffffffffff16021790555060c0820151816006015560e082015181600701556101008201518160080160006101000a81548160ff021916908315150217905550905050505050565b600e818051602081018201805184825260208301602085012081835280955050505050506000915054906101000a900460ff1681565b60008061263983611c69565b905080915050919050565b61265561264f612af6565b83612e4a565b6126aa576040517f08c379a00000000000000000000000000000000000000000000000000000000081526004018080602001828103825260318152602001806148696031913960400191505060405180910390fd5b6126b6848484846131fb565b50505050565b600c5481565b60606126cd82612ad9565b612722576040517f08c379a000000000000000000000000000000000000000000000000000000000815260040180806020018281038252602f815260200180614819602f913960400191505060405180910390fd5b6000600860008481526020019081526020016000208054600181600116156101000203166002900480601f0160208091040260200160405190810160405280929190818152602001828054600181600116156101000203166002900480156127cb5780601f106127a0576101008083540402835291602001916127cb565b820191906000526020600020905b8154815290600101906020018083116127ae57829003601f168201915b5050505050905060006127dc611cb8565b90506000815114156127f257819250505061298e565b6000825111156128c35780826040516020018083805190602001908083835b602083106128345780518252602082019150602081019050602083039250612811565b6001836020036101000a03801982511681845116808217855250505050505090500182805190602001908083835b602083106128855780518252602082019150602081019050602083039250612862565b6001836020036101000a038019825116818451168082178552505050505050905001925050506040516020818303038152906040529250505061298e565b806128cd8561326d565b6040516020018083805190602001908083835b6020831061290357805182526020820191506020810190506020830392506128e0565b6001836020036101000a03801982511681845116808217855250505050505090500182805190602001908083835b602083106129545780518252602082019150602081019050602083039250612931565b6001836020036101000a03801982511681845116808217855250505050505090500192505050604051602081830303815290604052925050505b919050565b60008061299e610e8b565b90508091505090565b600a8054600181600116156101000203166002900480601f016020809104026020016040519081016040528092919081815260200182805460018160011615610100020316600290048015612a3d5780601f10612a1257610100808354040283529160200191612a3d565b820191906000526020600020905b815481529060010190602001808311612a2057829003601f168201915b505050505081565b6000600560008473ffffffffffffffffffffffffffffffffffffffff1673ffffffffffffffffffffffffffffffffffffffff16815260200190815260200160002060008373ffffffffffffffffffffffffffffffffffffffff1673ffffffffffffffffffffffffffffffffffffffff16815260200190815260200160002060009054906101000a900460ff16905092915050565b6000612aef8260026133b490919063ffffffff16565b9050919050565b600033905090565b816004600083815260200190815260200160002060006101000a81548173ffffffffffffffffffffffffffffffffffffffff021916908373ffffffffffffffffffffffffffffffffffffffff160217905550808273ffffffffffffffffffffffffffffffffffffffff16612b7183611c69565b73ffffffffffffffffffffffffffffffffffffffff167f8c5be1e5ebec7d5bd14f71427d1e84f3dd0314c0f7b2291e5b200ac8c7c3b92560405160405180910390a45050565b600073ffffffffffffffffffffffffffffffffffffffff168273ffffffffffffffffffffffffffffffffffffffff161415612c5a576040517f08c379a00000000000000000000000000000000000000000000000000000000081526004018080602001828103825260208152602001807f4552433732313a206d696e7420746f20746865207a65726f206164647265737381525060200191505060405180910390fd5b612c6381612ad9565b15612cd6576040517f08c379a000000000000000000000000000000000000000000000000000000000815260040180806020018281038252601c8152602001807f4552433732313a20746f6b656e20616c7265616479206d696e7465640000000081525060200191505060405180910390fd5b612ce2600083836133ce565b612d3381600160008573ffffffffffffffffffffffffffffffffffffffff1673ffffffffffffffffffffffffffffffffffffffff1681526020019081526020016000206133d390919063ffffffff16565b50612d4a818360026133ed9092919063ffffffff16565b50808273ffffffffffffffffffffffffffffffffffffffff16600073ffffffffffffffffffffffffffffffffffffffff167fddf252ad1be2c89b69c2b068fc378daa952ba7f163c4a11628f55a4df523b3ef60405160405180910390a45050565b612db482612ad9565b612e09576040517f08c379a000000000000000000000000000000000000000000000000000000000815260040180806020018281038252602c8152602001806147c4602c913960400191505060405180910390fd5b80600860008481526020019081526020016000209080519060200190612e30929190613da2565b505050565b6000612e4382600001613422565b9050919050565b6000612e5582612ad9565b612eaa576040517f08c379a000000000000000000000000000000000000000000000000000000000815260040180806020018281038252602c8152602001806146bf602c913960400191505060405180910390fd5b6000612eb583611c69565b90508073ffffffffffffffffffffffffffffffffffffffff168473ffffffffffffffffffffffffffffffffffffffff161480612f2457508373ffffffffffffffffffffffffffffffffffffffff16612f0c84610948565b73ffffffffffffffffffffffffffffffffffffffff16145b80612f355750612f348185612a45565b5b91505092915050565b8273ffffffffffffffffffffffffffffffffffffffff16612f5e82611c69565b73ffffffffffffffffffffffffffffffffffffffff1614612fca576040517f08c379a00000000000000000000000000000000000000000000000000000000081526004018080602001828103825260298152602001806147f06029913960400191505060405180910390fd5b600073ffffffffffffffffffffffffffffffffffffffff168273ffffffffffffffffffffffffffffffffffffffff161415613050576040517f08c379a00000000000000000000000000000000000000000000000000000000081526004018080602001828103825260248152602001806146756024913960400191505060405180910390fd5b61305b8383836133ce565b613066600082612afe565b6130b781600160008673ffffffffffffffffffffffffffffffffffffffff1673ffffffffffffffffffffffffffffffffffffffff16815260200190815260200160002061343390919063ffffffff16565b5061310981600160008573ffffffffffffffffffffffffffffffffffffffff1673ffffffffffffffffffffffffffffffffffffffff1681526020019081526020016000206133d390919063ffffffff16565b50613120818360026133ed9092919063ffffffff16565b50808273ffffffffffffffffffffffffffffffffffffffff168473ffffffffffffffffffffffffffffffffffffffff167fddf252ad1be2c89b69c2b068fc378daa952ba7f163c4a11628f55a4df523b3ef60405160405180910390a4505050565b6000613190836000018361344d565b60001c905092915050565b6000806000806131ae86600001866134d0565b915091508160001c8160001c9350935050509250929050565b60006131da846000018460001b84613569565b60001c90509392505050565b60006131f48260000161365f565b9050919050565b613206848484612f3e565b61321284848484613670565b613267576040517f08c379a00000000000000000000000000000000000000000000000000000000081526004018080602001828103825260328152602001806146436032913960400191505060405180910390fd5b50505050565b606060008214156132b5576040518060400160405280600181526020017f300000000000000000000000000000000000000000000000000000000000000081525090506133af565b600082905060005b600082146132df578080600101915050600a82816132d757fe5b0491506132bd565b60008167ffffffffffffffff811180156132f857600080fd5b506040519080825280601f01601f19166020018201604052801561332b5781602001600182028036833780820191505090505b50905060006001830390508593505b600084146133a757600a848161334c57fe5b0660300160f81b8282806001900393508151811061336657fe5b60200101907effffffffffffffffffffffffffffffffffffffffffffffffffffffffffffff1916908160001a905350600a848161339f57fe5b04935061333a565b819450505050505b919050565b60006133c6836000018360001b613889565b905092915050565b505050565b60006133e5836000018360001b6138ac565b905092915050565b6000613419846000018460001b8473ffffffffffffffffffffffffffffffffffffffff1660001b61391c565b90509392505050565b600081600001805490509050919050565b6000613445836000018360001b6139f8565b905092915050565b6000818360000180549050116134ae576040517f08c379a00000000000000000000000000000000000000000000000000000000081526004018080602001828103825260228152602001806146216022913960400191505060405180910390fd5b8260000182815481106134bd57fe5b9060005260206000200154905092915050565b60008082846000018054905011613532576040517f08c379a00000000000000000000000000000000000000000000000000000000081526004018080602001828103825260228152602001806147766022913960400191505060405180910390fd5b600084600001848154811061354357fe5b906000526020600020906002020190508060000154816001015492509250509250929050565b60008084600101600085815260200190815260200160002054905060008114158390613630576040517f08c379a00000000000000000000000000000000000000000000000000000000081526004018080602001828103825283818151815260200191508051906020019080838360005b838110156135f55780820151818401526020810190506135da565b50505050905090810190601f1680156136225780820380516001836020036101000a031916815260200191505b509250505060405180910390fd5b5084600001600182038154811061364357fe5b9060005260206000209060020201600101549150509392505050565b600081600001805490509050919050565b60006136918473ffffffffffffffffffffffffffffffffffffffff16613ae0565b61369e5760019050613881565b600061380863150b7a0260e01b6136b3612af6565b888787604051602401808573ffffffffffffffffffffffffffffffffffffffff1681526020018473ffffffffffffffffffffffffffffffffffffffff16815260200183815260200180602001828103825283818151815260200191508051906020019080838360005b8381101561373757808201518184015260208101905061371c565b50505050905090810190601f1680156137645780820380516001836020036101000a031916815260200191505b5095505050505050604051602081830303815290604052907bffffffffffffffffffffffffffffffffffffffffffffffffffffffff19166020820180517bffffffffffffffffffffffffffffffffffffffffffffffffffffffff8381831617835250505050604051806060016040528060328152602001614643603291398773ffffffffffffffffffffffffffffffffffffffff16613af39092919063ffffffff16565b9050600081806020019051602081101561382157600080fd5b8101908080519060200190929190505050905063150b7a0260e01b7bffffffffffffffffffffffffffffffffffffffffffffffffffffffff1916817bffffffffffffffffffffffffffffffffffffffffffffffffffffffff191614925050505b949350505050565b600080836001016000848152602001908152602001600020541415905092915050565b60006138b88383613b0b565b613911578260000182908060018154018082558091505060019003906000526020600020016000909190919091505582600001805490508360010160008481526020019081526020016000208190555060019050613916565b600090505b92915050565b60008084600101600085815260200190815260200160002054905060008114156139c3578460000160405180604001604052808681526020018581525090806001815401808255809150506001900390600052602060002090600202016000909190919091506000820151816000015560208201518160010155505084600001805490508560010160008681526020019081526020016000208190555060019150506139f1565b828560000160018303815481106139d657fe5b90600052602060002090600202016001018190555060009150505b9392505050565b60008083600101600084815260200190815260200160002054905060008114613ad45760006001820390506000600186600001805490500390506000866000018281548110613a4357fe5b9060005260206000200154905080876000018481548110613a6057fe5b9060005260206000200181905550600183018760010160008381526020019081526020016000208190555086600001805480613a9857fe5b60019003818190600052602060002001600090559055866001016000878152602001908152602001600020600090556001945050505050613ada565b60009150505b92915050565b600080823b905060008111915050919050565b6060613b028484600085613b2e565b90509392505050565b600080836001016000848152602001908152602001600020541415905092915050565b606082471015613b89576040517f08c379a00000000000000000000000000000000000000000000000000000000081526004018080602001828103825260268152602001806146996026913960400191505060405180910390fd5b613b9285613ae0565b613c04576040517f08c379a000000000000000000000000000000000000000000000000000000000815260040180806020018281038252601d8152602001807f416464726573733a2063616c6c20746f206e6f6e2d636f6e747261637400000081525060200191505060405180910390fd5b6000808673ffffffffffffffffffffffffffffffffffffffff1685876040518082805190602001908083835b60208310613c535780518252602082019150602081019050602083039250613c30565b6001836020036101000a03801982511681845116808217855250505050505090500191505060006040518083038185875af1925050503d8060008114613cb5576040519150601f19603f3d011682016040523d82523d6000602084013e613cba565b606091505b5091509150613cca828286613cd6565b92505050949350505050565b60608315613ce657829050613d9b565b600083511115613cf95782518084602001fd5b816040517f08c379a00000000000000000000000000000000000000000000000000000000081526004018080602001828103825283818151815260200191508051906020019080838360005b83811015613d60578082015181840152602081019050613d45565b50505050905090810190601f168015613d8d5780820380516001836020036101000a031916815260200191505b509250505060405180910390fd5b9392505050565b828054600181600116156101000203166002900490600052602060002090601f016020900481019282613dd85760008555613e1f565b82601f10613df157805160ff1916838001178555613e1f565b82800160010185558215613e1f579182015b82811115613e1e578251825591602001919060010190613e03565b5b509050613e2c9190613e30565b5090565b5b80821115613e49576000816000905550600101613e31565b5090565b6000613e60613e5b84614462565b614431565b905082815260208101848484011115613e7857600080fd5b613e8384828561456f565b509392505050565b6000613e9e613e9984614492565b614431565b905082815260208101848484011115613eb657600080fd5b613ec184828561456f565b509392505050565b600081359050613ed8816145c4565b92915050565b600081359050613eed816145db565b92915050565b600081359050613f02816145f2565b92915050565b600082601f830112613f1957600080fd5b8135613f29848260208601613e4d565b91505092915050565b600082601f830112613f4357600080fd5b8135613f53848260208601613e8b565b91505092915050565b600081359050613f6b81614609565b92915050565b600060208284031215613f8357600080fd5b6000613f9184828501613ec9565b91505092915050565b60008060408385031215613fad57600080fd5b6000613fbb85828601613ec9565b9250506020613fcc85828601613ec9565b9150509250929050565b600080600060608486031215613feb57600080fd5b6000613ff986828701613ec9565b935050602061400a86828701613ec9565b925050604061401b86828701613f5c565b9150509250925092565b6000806000806080858703121561403b57600080fd5b600061404987828801613ec9565b945050602061405a87828801613ec9565b935050604061406b87828801613f5c565b925050606085013567ffffffffffffffff81111561408857600080fd5b61409487828801613f08565b91505092959194509250565b600080604083850312156140b357600080fd5b60006140c185828601613ec9565b92505060206140d285828601613ede565b9150509250929050565b600080604083850312156140ef57600080fd5b60006140fd85828601613ec9565b925050602061410e85828601613f5c565b9150509250929050565b60006020828403121561412a57600080fd5b600061413884828501613ef3565b91505092915050565b60006020828403121561415357600080fd5b600082013567ffffffffffffffff81111561416d57600080fd5b61417984828501613f32565b91505092915050565b60008060006060848603121561419757600080fd5b600084013567ffffffffffffffff8111156141b157600080fd5b6141bd86828701613f32565b935050602084013567ffffffffffffffff8111156141da57600080fd5b6141e686828701613f32565b92505060406141f786828701613f5c565b9150509250925092565b60006020828403121561421357600080fd5b600061422184828501613f5c565b91505092915050565b6000806040838503121561423d57600080fd5b600061424b85828601613f5c565b925050602061425c85828601613f5c565b9150509250929050565b61426f816144fb565b82525050565b61427e816144e9565b82525050565b61428d8161450d565b82525050565b600061429e826144c2565b6142a881856144cd565b93506142b881856020860161457e565b6142c1816145b3565b840191505092915050565b60006142d7826144c2565b6142e181856144de565b93506142f181856020860161457e565b80840191505092915050565b61430681614565565b82525050565b600061431882846142cc565b915081905092915050565b60006020820190506143386000830184614275565b92915050565b60006020820190506143536000830184614284565b92915050565b600060208201905081810360008301526143738184614293565b905092915050565b600060208201905061439060008301846142fd565b92915050565b6000610120820190506143ac600083018c6142fd565b81810360208301526143be818b614293565b905081810360408301526143d2818a614293565b90506143e16060830189614266565b6143ee6080830188614266565b6143fb60a0830187614266565b61440860c08301866142fd565b61441560e08301856142fd565b614423610100830184614284565b9a9950505050505050505050565b6000604051905081810181811067ffffffffffffffff82111715614458576144576145b1565b5b8060405250919050565b600067ffffffffffffffff82111561447d5761447c6145b1565b5b601f19601f8301169050602081019050919050565b600067ffffffffffffffff8211156144ad576144ac6145b1565b5b601f19601f8301169050602081019050919050565b600081519050919050565b600082825260208201905092915050565b600081905092915050565b60006144f482614545565b9050919050565b600061450682614545565b9050919050565b60008115159050919050565b60007fffffffff0000000000000000000000000000000000000000000000000000000082169050919050565b600073ffffffffffffffffffffffffffffffffffffffff82169050919050565b6000819050919050565b82818337600083830152505050565b60005b8381101561459c578082015181840152602081019050614581565b838111156145ab576000848401525b50505050565bfe5b6000601f19601f8301169050919050565b6145cd816144e9565b81146145d857600080fd5b50565b6145e48161450d565b81146145ef57600080fd5b50565b6145fb81614519565b811461460657600080fd5b50565b61461281614565565b811461461d57600080fd5b5056fe456e756d657261626c655365743a20696e646578206f7574206f6620626f756e64734552433732313a207472616e7366657220746f206e6f6e20455243373231526563656976657220696d706c656d656e7465724552433732313a207472616e7366657220746f20746865207a65726f2061646472657373416464726573733a20696e73756666696369656e742062616c616e636520666f722063616c6c4552433732313a206f70657261746f7220717565727920666f72206e6f6e6578697374656e7420746f6b656e4552433732313a20617070726f76652063616c6c6572206973206e6f74206f776e6572206e6f7220617070726f76656420666f7220616c6c4552433732313a2062616c616e636520717565727920666f7220746865207a65726f20616464726573734552433732313a206f776e657220717565727920666f72206e6f6e6578697374656e7420746f6b656e456e756d657261626c654d61703a20696e646578206f7574206f6620626f756e64734552433732313a20617070726f76656420717565727920666f72206e6f6e6578697374656e7420746f6b656e4552433732314d657461646174613a2055524920736574206f66206e6f6e6578697374656e7420746f6b656e4552433732313a207472616e73666572206f6620746f6b656e2074686174206973206e6f74206f776e4552433732314d657461646174613a2055524920717565727920666f72206e6f6e6578697374656e7420746f6b656e4552433732313a20617070726f76616c20746f2063757272656e74206f776e65724552433732313a207472616e736665722063616c6c6572206973206e6f74206f776e6572206e6f7220617070726f766564a26469706673582212200036553f9cc5c4977f205ae0f2be84221ecab1d24d10ce3215ec62b70cd2625a64736f6c63430007060033",
  "immutableReferences": {},
  "source": "// SPDX-License-Identifier: MIT\r\npragma solidity >=0.4.21 <0.8.0;\r\npragma abicoder v2;\r\n\r\n// import ERC721 iterface\r\nimport \"./ERC721.sol\";\r\n\r\n// CryptoBoys smart contract inherits ERC721 interface\r\ncontract CryptoBoys is ERC721 {\r\n\r\n  // this contract's token collection name\r\n  string public collectionName;\r\n  // this contract's token symbol\r\n  string public collectionNameSymbol;\r\n  // total number of crypto boys minted\r\n  uint256 public cryptoBoyCounter;\r\n\r\n  // define crypto boy struct\r\n   struct CryptoBoy {\r\n    uint256 tokenId;\r\n    string tokenName;\r\n    string tokenURI;\r\n    address payable mintedBy;\r\n    address payable currentOwner;\r\n    address payable previousOwner;\r\n    uint256 price;\r\n    uint256 numberOfTransfers;\r\n    bool forSale;\r\n  }\r\n\r\n  // map cryptoboy's token id to crypto boy\r\n  mapping(uint256 => CryptoBoy) public allCryptoBoys;\r\n  // check if token name exists\r\n  mapping(string => bool) public tokenNameExists;\r\n  // check if token URI exists\r\n  mapping(string => bool) public tokenURIExists;\r\n\r\n  // initialize contract while deployment with contract's collection name and token\r\n  constructor() ERC721(\"Crypto Boys Collection\", \"CB\") {\r\n    collectionName = name();\r\n    collectionNameSymbol = symbol();\r\n  }\r\n\r\n  // mint a new crypto boy\r\n  function mintCryptoBoy(string memory _name, string memory _tokenURI, uint256 _price) external {\r\n    // check if thic fucntion caller is not an zero address account\r\n    require(msg.sender != address(0));\r\n    // increment counter\r\n    cryptoBoyCounter ++;\r\n    // check if a token exists with the above token id => incremented counter\r\n    require(!_exists(cryptoBoyCounter));\r\n\r\n    // check if the token URI already exists or not\r\n    require(!tokenURIExists[_tokenURI]);\r\n    // check if the token name already exists or not\r\n    require(!tokenNameExists[_name]);\r\n\r\n    // mint the token\r\n    _mint(msg.sender, cryptoBoyCounter);\r\n    // set token URI (bind token id with the passed in token URI)\r\n    _setTokenURI(cryptoBoyCounter, _tokenURI);\r\n\r\n    // make passed token URI as exists\r\n    tokenURIExists[_tokenURI] = true;\r\n    // make token name passed as exists\r\n    tokenNameExists[_name] = true;\r\n\r\n    // creat a new crypto boy (struct) and pass in new values\r\n    CryptoBoy memory newCryptoBoy = CryptoBoy(\r\n    cryptoBoyCounter,\r\n    _name,\r\n    _tokenURI,\r\n    msg.sender,\r\n    msg.sender,\r\n    address(0),\r\n    _price,\r\n    0,\r\n    true);\r\n    // add the token id and it's crypto boy to all crypto boys mapping\r\n    allCryptoBoys[cryptoBoyCounter] = newCryptoBoy;\r\n  }\r\n\r\n  // get owner of the token\r\n  function getTokenOwner(uint256 _tokenId) public view returns(address) {\r\n    address _tokenOwner = ownerOf(_tokenId);\r\n    return _tokenOwner;\r\n  }\r\n\r\n  // get metadata of the token\r\n  function getTokenMetaData(uint _tokenId) public view returns(string memory) {\r\n    string memory tokenMetaData = tokenURI(_tokenId);\r\n    return tokenMetaData;\r\n  }\r\n\r\n  // get total number of tokens minted so far\r\n  function getNumberOfTokensMinted() public view returns(uint256) {\r\n    uint256 totalNumberOfTokensMinted = totalSupply();\r\n    return totalNumberOfTokensMinted;\r\n  }\r\n\r\n  // get total number of tokens owned by an address\r\n  function getTotalNumberOfTokensOwnedByAnAddress(address _owner) public view returns(uint256) {\r\n    uint256 totalNumberOfTokensOwned = balanceOf(_owner);\r\n    return totalNumberOfTokensOwned;\r\n  }\r\n\r\n  // check if the token already exists\r\n  function getTokenExists(uint256 _tokenId) public view returns(bool) {\r\n    bool tokenExists = _exists(_tokenId);\r\n    return tokenExists;\r\n  }\r\n\r\n  // by a token by passing in the token's id\r\n  function buyToken(uint256 _tokenId) public payable {\r\n    // check if the function caller is not an zero account address\r\n    require(msg.sender != address(0));\r\n    // check if the token id of the token being bought exists or not\r\n    require(_exists(_tokenId));\r\n    // get the token's owner\r\n    address tokenOwner = ownerOf(_tokenId);\r\n    // token's owner should not be an zero address account\r\n    require(tokenOwner != address(0));\r\n    // the one who wants to buy the token should not be the token's owner\r\n    require(tokenOwner != msg.sender);\r\n    // get that token from all crypto boys mapping and create a memory of it defined as (struct => CryptoBoy)\r\n    CryptoBoy memory cryptoboy = allCryptoBoys[_tokenId];\r\n    // price sent in to buy should be equal to or more than the token's price\r\n    require(msg.value >= cryptoboy.price);\r\n    // token should be for sale\r\n    require(cryptoboy.forSale);\r\n    // transfer the token from owner to the caller of the function (buyer)\r\n    _transfer(tokenOwner, msg.sender, _tokenId);\r\n    // get owner of the token\r\n    address payable sendTo = cryptoboy.currentOwner;\r\n    // send token's worth of ethers to the owner\r\n    sendTo.transfer(msg.value);\r\n    // update the token's previous owner\r\n    cryptoboy.previousOwner = cryptoboy.currentOwner;\r\n    // update the token's current owner\r\n    cryptoboy.currentOwner = msg.sender;\r\n    // update the how many times this token was transfered\r\n    cryptoboy.numberOfTransfers += 1;\r\n    // set and update that token in the mapping\r\n    allCryptoBoys[_tokenId] = cryptoboy;\r\n  }\r\n\r\n  function changeTokenPrice(uint256 _tokenId, uint256 _newPrice) public {\r\n    // require caller of the function is not an empty address\r\n    require(msg.sender != address(0));\r\n    // require that token should exist\r\n    require(_exists(_tokenId));\r\n    // get the token's owner\r\n    address tokenOwner = ownerOf(_tokenId);\r\n    // check that token's owner should be equal to the caller of the function\r\n    require(tokenOwner == msg.sender);\r\n    // get that token from all crypto boys mapping and create a memory of it defined as (struct => CryptoBoy)\r\n    CryptoBoy memory cryptoboy = allCryptoBoys[_tokenId];\r\n    // update token's price with new price\r\n    cryptoboy.price = _newPrice;\r\n    // set and update that token in the mapping\r\n    allCryptoBoys[_tokenId] = cryptoboy;\r\n  }\r\n\r\n  // switch between set for sale and set not for sale\r\n  function toggleForSale(uint256 _tokenId) public {\r\n    // require caller of the function is not an empty address\r\n    require(msg.sender != address(0));\r\n    // require that token should exist\r\n    require(_exists(_tokenId));\r\n    // get the token's owner\r\n    address tokenOwner = ownerOf(_tokenId);\r\n    // check that token's owner should be equal to the caller of the function\r\n    require(tokenOwner == msg.sender);\r\n    // get that token from all crypto boys mapping and create a memory of it defined as (struct => CryptoBoy)\r\n    CryptoBoy memory cryptoboy = allCryptoBoys[_tokenId];\r\n    // if token's forSale is false make it true and vice versa\r\n    if(cryptoboy.forSale) {\r\n      cryptoboy.forSale = false;\r\n    } else {\r\n      cryptoboy.forSale = true;\r\n    }\r\n    // set and update that token in the mapping\r\n    allCryptoBoys[_tokenId] = cryptoboy;\r\n  }\r\n}",
  "sourcePath": "C:\\repos\\eth_nft_marketplace\\webapp\\contracts\\CryptoBoys.sol",
  "compiler": {
    "name": "solc",
    "version": "0.7.6+commit.7338295f.Emscripten.clang"
  },
  "schemaVersion": "3.4.14",
  "updatedAt": "2023-06-21T05:45:44.338Z",
  "devdoc": {
    "kind": "dev",
    "methods": {
      "approve(address,uint256)": {
        "details": "See {IERC721-approve}."
      },
      "balanceOf(address)": {
        "details": "See {IERC721-balanceOf}."
      },
      "baseURI()": {
        "details": "Returns the base URI set via {_setBaseURI}. This will be automatically added as a prefix in {tokenURI} to each token's URI, or to the token ID if no specific URI is set for that token ID."
      },
      "getApproved(uint256)": {
        "details": "See {IERC721-getApproved}."
      },
      "isApprovedForAll(address,address)": {
        "details": "See {IERC721-isApprovedForAll}."
      },
      "name()": {
        "details": "See {IERC721Metadata-name}."
      },
      "ownerOf(uint256)": {
        "details": "See {IERC721-ownerOf}."
      },
      "safeTransferFrom(address,address,uint256)": {
        "details": "See {IERC721-safeTransferFrom}."
      },
      "safeTransferFrom(address,address,uint256,bytes)": {
        "details": "See {IERC721-safeTransferFrom}."
      },
      "setApprovalForAll(address,bool)": {
        "details": "See {IERC721-setApprovalForAll}."
      },
      "supportsInterface(bytes4)": {
        "details": "See {IERC165-supportsInterface}. Time complexity O(1), guaranteed to always use less than 30 000 gas."
      },
      "symbol()": {
        "details": "See {IERC721Metadata-symbol}."
      },
      "tokenByIndex(uint256)": {
        "details": "See {IERC721Enumerable-tokenByIndex}."
      },
      "tokenOfOwnerByIndex(address,uint256)": {
        "details": "See {IERC721Enumerable-tokenOfOwnerByIndex}."
      },
      "tokenURI(uint256)": {
        "details": "See {IERC721Metadata-tokenURI}."
      },
      "totalSupply()": {
        "details": "See {IERC721Enumerable-totalSupply}."
      },
      "transferFrom(address,address,uint256)": {
        "details": "See {IERC721-transferFrom}."
      }
    },
    "version": 1
  },
  "userdoc": {
    "kind": "user",
    "methods": {},
    "version": 1
  }
}